:020000040000FA
:200000000203370218034100C4002202180B222222FFFF021813E4FFA10EFF02181B75C8A7
:200020000122FF021823FFFFFFFFFF02182BFFFFFFFFFF021833FFFFFFFFFF02183BFFFF8B
:20004000FFFFFF021843FFFFFFFFFF02184BFFFFFFFFFF021853FFFFFFFFFF02185BFFFF10
:20006000FFFFFF021863FFFFFFFFFF02186BFFFFFFFFFF021873BB010689828A83E02250D2
:2000800002E722BBFE02E32289828A83E49322BB010CE58229F582E5833AF583E0225006A3
:2000A000E92582F8E622BBFE06E92582F8E222E58229F582E5833AF583E49322BB01068960
:2000C000828A83F0225002F722BBFE01F322F8BB010DE58229F582E5833AF583E8F0225019
:2000E00006E92582C8F622BBFE05E92582C8F222C5F0F8A3E028F0C5F0F8E58215827002FB
:200100001583E038F022A3F8E0C5F025F0F0E582158270021583E0C838F0E822BB010A89B7
:20012000828A83E0F5F0A3E022500687F009E71922BBFE07E3F5F009E3192289828A83E423
:2001400093F5F074019322BB010A89828A83F0E5F0A3F0225006F709A7F01922BBFE06F3CB
:20016000E5F009F31922EF2BFFEE3AFEED39FDEC38FC22C3EF9BFFEE9AFEED99FDEC98FCFA
:200180002275F008758200EF2FFFEE33FECD33CDCC33CCC58233C5829BED9AEC99E582989E
:2001A000400CF582EE9BFEED9AFDEC99FC0FD5F0D6E4CEFBE4CDFAE4CCF9A88222B800C180
:2001C000B90059BA002DEC8BF084CFCECDFCE5F0CBF97818EF2FFFEE33FEED33FDEC33FC38
:2001E000EB33FB10D703994004EB99FB0FD8E5E4F9FA227818EF2FFFEE33FEED33FDEC33D3
:20020000FCC933C910D7059BE99A4007EC9BFCE99AF90FD8E0E4C9FAE4CCFB2275F010EF2E
:200220002FFFEE33FEED33FDCC33CCC833C810D7079BEC9AE899400AED9BFDEC9AFCE89964
:20024000F80FD5F0DAE4CDFBE4CCFAE4C8F922EF5BFFEE5AFEED59FDEC58FC22EB9FF5F038
:20026000EA9E42F0E99D42F0E89C45F022E8600FECC313FCED13FDEE13FEEF13FFD8F12234
:20028000E8600FEFC333FFEE33FEED33FDEC33FCD8F122E0FCA3E0FDA3E0FEA3E0FF22E080
:2002A000F8A3E0F9A3E0FAA3E0FB22ECF0A3EDF0A3EEF0A3EFF022A8828583F0D083D08265
:2002C0001202CE1202CE1202CE1202CEE473E493A3C583C5F0C583C8C582C8F0A3C583C569
:2002E000F0C583C8C582C822E0FBA3E0FAA3E0F922F8E0FBA3A3E0F925F0F0E58215827072
:20030000021583E0FA38F022EBF0A3EAF0A3E9F022D083D082F8E4937012740193700DA36B
:20032000A393F8740193F5828883E4737402936860EFA3A3A380DF75814B02079BAEFFEE26
:2003400054CFFEEFC454F024804EF5FF2290091151AB9009115193B1A1900915E06F603466
:20036000110F9102EF6004111080F7B11AB1DB9000BAE0FF91E660099009115193781071F8
:200380009A900911719690091191EF900915E0FFB108D322C32251937808516DE4E5C820F5
:2003A000E2FB8FEB229000D151AB9000D57108110F9102EF6004111080F7B11AB1DB900004
:2003C000BAE0FF91E660099000D151937810719A9000D171969000D15193E4801B9000D838
:2003E000D1BB60189000D551E8EA494B60089000D5120E2B8001E4FF719D80E1B126E4FF38
:20040000A10E7F01B10E30021491D8915290092AEFF0B12690092AE020E002C20230021731
:2004200091419000B8EF91F4600BA3E0F46006EF30E702C202B126E4FFB10EA202E433FFE7
:2004400022B1DB7FD7719D7FFF719D91569000B7EFF07FFF719DE5C820E2FBAFEB227F017F
:20046000B10E9009287401F0900928E0602E91D89152900928EFF0B12691419000B8EFF0AC
:20048000B126900928E0540191F460DCA3E0F460D7EF30E7D3E4900928F080CCB1DB7F9FBC
:2004A000719D91529000B991509000BE91509000BFEFF0B10A9000B7E0F4601BA3E0F4609C
:2004C000169000BEE0FD541F240FA3F0EDC413540744809000BEF022B1DB7F05619D7F01D1
:2004E000B10EB1DB7F03719D9000BDE06402225193E4619DF09000B7E0FFF422FFFFFFFF7E
:20050000FFFFFFFFFFFFFFFF719DB126E4FFEFB4010443FE202253FEDF227F01B10ED2028B
:20052000B1DB7F06719D1213E7EF70FA9000BEE0F4600A9009277406F0F17D70FC9000BC5B
:20054000E07111055F04056714056C15057117058130058634058B36059037000005794376
:200560004610854680802F43471080084347208003434780854790801D4348208548A08041
:2005800015434901800D434910800843494080034349808549B0900927740CF0F17D70FC25
:2005A0002290090C51AB110F9102EF6004111080F791DE600990090C51937810719A90094D
:2005C0000C719690090C91EF9152900910EFF0B10A900910E0FF227F01B10E9000BCE07137
:2005E0001105FD04060514060A15060F17061F30062434062936062E37000006175346EF4C
:20060000854680802F5347EF80085347DF800353477F854790801D5348DF8548A0801553F2
:2006200049FE800D5349EF80085349BF800353497F8549B07F0CDFFE22110F9102EF6004CC
:20064000111080F7B11AB1DB7F01719D7F03719DB126E4FFA10E9000DA51AB9000DE7108D7
:20066000110F9102EF6004111080F791DE60099000DA51937810719A9000DA71969000DA48
:2006800091EF9000E1D1BB601291529000DE51E8EF11BC9000DF1212AA80E7B126E4FFA126
:2006A0000E9000B7E020E012B1D77F3D719D7F2A719D7F80719D7FA6B1082274FFF5F03154
:2006C0000645F022900929EFF09000C5E064027022B1D7900929E07FAB60027FB9719DB142
:2006E00026900929E09000C4F070047F1EDFFEE4FFB10E22900000EEF0A3EFF0A351939035
:20070000000851AB900006E0FFA3E090000CCF805D90000C120FDC605BC3EF9440EE940039
:200720004006A37440F0800590000EEFF0F185E0FF120D0DEFF09000085193D15690000E89
:20074000E0FFC390000DE09FF090000CE09400F0900008519F90000EE4FCFDFE31669000C3
:200760000851ABF174F185120C32900000EEF0A3EFF0809D900000E0FEA3E0FF229009276B
:20078000E014F0E0227B017A00790F90000E22110F9102EF6004111080F72275FF03759EEB
:2007A000029017FAE493F53C75FF02E5E654036003020B5D753CDE753DAD753EBE753FEF87
:2007C000C2AF75FF0275E404F5E47546FF7547FF7548FF7549FF7542FF7543FF7544FF7574
:2007E00045FF75FF0253E6BF1212CD1210D4120FE3EF64016003020B5490180893FE74018E
:2008000093FF9000ADEEF0A3EFF0F5828E83E493F540740193F541740293F54A740393F5F0
:200820004B740493F530740593F531740693F532740793F533C201EF4E7002212BEFF4FF01
:20084000EEF44F7002212BE540454AFEE541454BFFE5304EFEE5314FFFE5324EFEE5334FB3
:200860004E7002212BE54BF4FFE54AF4FEE541F4FDE540F44EFEED4FFFE531F4FDE530F461
:200880004EFEEF4DFFE533F4FDE532F44EFEEF4D4E7002212B7F0312033DE53324FFFFE536
:2008A00032B124640370247F0212033DE53124FFFFE530B124B402137F0112033DE54B2452
:2008C000FFFFE54AB124B40102D20120015D7F0112033DB1459000E8E54AF0A3E54BF07F6D
:2008E0000F7E1D91A57F02B13A9000E8E530F0E53191A37F03B13A9000E8E532F0E5339150
:20090000A37F0112033D900922E0FEA3E0FF7BFF7A187900E425419000E9F0E54034E8903E
:2009200000E891A44EC37001D39201300109B19AEF6401600261549000ADE0FEA3E0F582AD
:200940008E83740C93F53A740D93F53B9000961202937160900079B181FD9000AF7188EF03
:200960002408FFE43E71727B007A007938B10D7402F0120656C200D3900078E09539900034
:2009800077E09538400241639000AF12029FC000C001C002C003AE38AF39E4FCFDC006C024
:2009A00007900077E0FEA3E0FBAA06E4F9F8D007D006120173D003D002D001D00012016656
:2009C000716090007B120293EF24F2FFEE34FFB14C9000AFB1D4400241639000AF120293E2
:2009E0007A00799FB10B740EF01206569000ABE0F536A3E0F5379000A1E0F54AA3E0F54BC1
:200A0000A3E0F530A3E0F531A3E0F532A3E0F533900092120293EF24FFFFEE347F71727161
:200A200060AE4AAF4BE4FCFD9000AF71881205A1EF6401702E71667160AE30AF31E4FCFD62
:200A40009000AF71881205A1BF021871667160AE32AF33E4FCFD9000AF71881205A1BF03D4
:200A600002D200200002615030010EE53B65377004E53A6536700261507B017A0979227178
:200A80008E4002615090009B1202B700001800717A612A7440D395345002613F90007B9173
:200AA000B3EE34F8B14C9000AF12029FD312025C4002613F90009B1202937B007AF879011C
:200AC0007800C312025C40779000AF1202930B7A0179009000E17408F0A3E4F0120656E429
:200AE000F535FB91DFAF34B156E535C39408502091DDE5357F00FEEF2400F974013EFA7B55
:200B00000190090BE535F0AD34121330053580D990009B91B3EE3408717290009B1202ABF7
:200B20009000AF91B3EE340871727160E4FB7A08F9F890009B1202931201BD8F3441937455
:200B400040D39534400A91DDAF34B156053480EFE4FFB1DBE4F53CF53DF53EF53F02180038
:200B60009000AF0202AB9000AF120293E42FFFEE3480FEE43DFDE43CFC22900079E0FEA309
:200B8000E0FFE4FCFD90009612029F02016690091F120308717AEF2408FFE43E71727A00FE
:200BA000797FB10B7402F012065690007FB181FD90009271887B017A007984B10D740EF031
:200BC000120656900092716991C2900086B12D7F0F7E1D91C8B114C006C00791B0E43E919C
:200BE000BA900088B12DD007D00691C8B114C006C00791B0EE348091BA90008AB12DD007F0
:200C0000D00691C8B114C006C007717A91C2900085E02400FE900084E034E8900006F0A3C5
:200C2000CEF0D007D00691C812011C45F0C37001D322E0FD9000E8E4F0A3EDF09000E3EE59
:200C4000F0A3EFF0A31203089000E81206BB604A9000E5D12B9000EAF07D80ED60EA919A33
:200C6000EE7C0030E7027C019000EAE05D7B0060027B01EB6CFCEF25E0FFEE339000E3F09A
:200C8000A3EFF0AF04EF600C9000E3E06410F0A3E06421F0EDC313FD80C19000E3E0FEA320
:200CA000E0FF22A3F0913C900922EEF0A3EFF022900092120293E42FFF22FEED3401FDE498
:200CC0003CFC9000020202AB1206F490091F1202E8EE8FF012014790091F0202E87B007A7B
:200CE00000793CB17A75FF03120076F5D375FF03900001B11B900002B11B900003B11B7547
:200D0000D40175FF03E5D55402FF227B019000E1E4F0A32212011CFFAEF02212008FF5D379
:200D200075FF0322347F8F82F583E49322E0FFA3E0900006CFF0A3EFF02212033D900922DD
:200D4000E0FEA3E0FF7BFF7A80790022FEED34FFFDEC34FFFC2275FF03EF543F4480F5D149
:200D6000E5D520E20AE5D520E005E5D530E1F1E5D55403FF75FF0375D50575FF0375D4029A
:200D800022E0FEA3E0FFE4FC227F0F7E1D91349000EF1202E89000F28132E4900926F0900E
:200DA000009AE06020B1CB70087FFF7E77FDFC800CD11B50107FFF7EFF7D017C001205A154
:200DC000900926EFF0900926E0FF22E4FFFE7D02FC90007B12029FC302025C900924EFF0DC
:200DE000E4A3F090009AE06021B1CB7008D1107E777D00800AD11B5011D1107EFF7D017C7B
:200E00000012034DE433900925F0900925E0FF22900924E0900915F07FFF2290007B1202F2
:200E200093E4FBFA7904F8D302025CE475F0011202F1020076B17A75FF03E5D5F45402FF32
:200E4000229000FCD15CC0079000FC1202E89000FFE0FFB10DEFF0D007020656120308E427
:200E6000FCFD22900902D15CC0079009021202E8900905F1D0F0D00790004F1202AB9000DD
:200E800053120308E4900076F0D3900057E0941E900056E094004001227B017A00795890A8
:200EA0000056E0FFA3E09000E1CFF0A3EFF090004F1202931206569000531202E8E94A6062
:200EC0000F900076E0F58275830012008FFF80027F00900076E02458F582E43400F583E0C4
:200EE0006F6002C322900076E004FFF0D3900057E09F900056E0940050BD229000C6120237
:200F0000AB9000CA1203081214389000CDF1D0F09000C6120293D1785002E1C59000C1E0D4
:200F200024FFFF9000C0E034FFFEE4FCFD9000C612029F12024F9000CFEEF0A3EFF04E6078
:200F40003BF1C7C39000C1E09FFF9000C0E09EFE9000CFF0A3EFF09000CDE0FCA3E0FDD3E3
:200F60009FEC9E5006A3ECF0A3EDF01213F3E94A6004F1C780427E007F00803C9000CDF1C3
:200F8000DC60409000C0E0FCA3E0FDD3EF9DEE9C400A9000CFECF0A3EDF0800D9000CDE071
:200FA000FFA3E0A3CFF0A3EFF01213F3E94A6004F1C780047E007F009000CBEE8FF0120009
:200FC000F080B9D322C3229000CFE0FEA3E0FF22E0FFA3E0900056CFF0A3EF22E0FEA3E011
:200FE000FF4E22E490009AF07B017A007981121378900083E0FBB411229000961202B70031
:201000000078009000921202B7000060009000777418F0A3E4F0A3F0A380277412D39B50F0
:20102000279000961202B7000200009000921202B700020000E4900077F0A3F0A37418F01A
:20104000A3E4F090009A04F090009AE0FB6017E4FFFE7D02FC900083E024EFF9F812028098
:2010600090007B1202ABAF032275FF03E4F59751B1E59720E1FB75FF03AF9922900916EFF2
:20108000F0A3EDF0A3120308900917E06045901215E06012900916E02410FF1169900918F5
:2010A0001202E8EF8017900916E0640190091870071202E8748080051202E874FF1200BCE0
:2010C00090091951AA900917E014F0900916E004F080B5227B017A0079BC7F0351917A00EC
:2010E00079C57F0851917A0079C27D027F09117C7B017A0079C07D027F0B117C9000C012D9
:201100000FDC6006BEFF1BBFFF189000C5E024FD600304700451A080099000C0E4F0A374EA
:2011200040F09000C5E024FD60030470089000BD7403F080069000BD7402F09000BCE0121F
:201140000311115E04116914117115117917118F30119734119F3611A7370000118475FFB8
:20116000015342EF8542FD804775FF015343EF800E75FF015343DF800675FF0153437F8558
:2011800043C9802C75FF015344DF8544CA802175FF015345FE801675FF015345EF800E75D8
:2011A000FF015345BF800675FF0153457F8545CB1205267F11518BE4FF1206C412045E90C5
:2011C00000BA7402F09000BEE0247F60090470165198740A80071206A151987458F090004F
:2011E000BD7403F051A09000BFE0F4600241889000C2E0FEA3E0FF64104E70069000BF74DF
:201200000EF0EF64204E70069000BF740FF0EF64404E70069000BF7410F0EF64804E700626
:201220009000BF7411F0E4B5070AEEB401069000BF7412F0E4B5070AEEB402069000BF74BB
:2012400013F0E4B5070AEEB404069000BF7414F0E4B5070AEEB408069000BF7415F0E4B5B3
:20126000070AEEB410069000BF7416F0E4B5070AEEB420069000BF7417F0E4B5070AEEB454
:2012800040069000BF7418F0020639EF4420F5FE227D01117C7B01227F10518B9000BA2214
:2012A0009000C07401F0A3E4F022E475F0010200F075FF038F9875FF032275FF03759701E9
:2012C00051B1E59720E1FB75FF03AF992290091B7410F090091BE0FFD3947F503D1169907B
:2012E000091CEFF090091BE0B410067E1D7F0F800890091DE0FEA3E0FF7B017A09791C90A1
:2013000000E8E4F0A304F0120C3C90091DEEF0A3EFF090091BE004F080B990091DE0700241
:20132000A3E07F0070027F01901215EFF024FF2275FF03ACD5EC20E13C75FF03ED543FF5D1
:20134000D175FF03E9F5D375FF03EA540FFF90090BE0C4547044804FF5D2E5D520E205E545
:20136000D530E0F6E5D55401FC75FF0343D40275FF0375D505AF04229000B9E01200BC90D5
:2013800000BEE09000011200CE9000BFE09000020200CEE4FCFD0205A1AB05E4FCFD900902
:2013A00015EBF002034D9000F5120E5CC0079000F51202E89000F8E0FFA3E09000CDCFF09C
:2013C000A3EFF0D007020EFBEFB40109D2AD75FF0143AE4022C2AD75FF0153AEBF22E5C842
:2013E0005402FF75C80222E5C85404FF22E5C85401FF229000CA1202E89000CFE0FFA3E0D7
:201400009000D8CFF0A3EFF09000C61202931203A59000CFE0FEA3E0FFC39000CEE09FF01D
:201420009000CDE09EF09000C612029FE4FCFD1201669000C61202AB9000CA0202E8FFFF29
:20144000FFFFFFFFFFFFFFFFFFFFFFFFFFFFFFFFFFFFFFFFFFFFFFFFFFFFFFFFFFFFFFFFAC
:20146000FFFFFFFFFFFFFFFFFFFFFFFFFFFFFFFFFFFFFFFFFFFFFFFFFFFFFFFFFFFFFFFF8C
:20148000FFFFFFFFFFFFFFFFFFFFFFFFFFFFFFFFFFFFFFFFFFFFFFFFFFFFFFFFFFFFFFFF6C
:2014A000FFFFFFFFFFFFFFFFFFFFFFFFFFFFFFFFFFFFFFFFFFFFFFFFFFFFFFFFFFFFFFFF4C
:2014C000FFFFFFFFFFFFFFFFFFFFFFFFFFFFFFFFFFFFFFFFFFFFFFFFFFFFFFFFFFFFFFFF2C
:2014E000FFFFFFFFFFFFFFFFFFFFFFFFFFFFFFFFFFFFFFFFFFFFFFFFFFFFFFFFFFFFFFFF0C
:20150000FFFFFFFFFFFFFFFFFFFFFFFFFFFFFFFFFFFFFFFFFFFFFFFFFFFFFFFFFFFFFFFFEB
:20152000FFFFFFFFFFFFFFFFFFFFFFFFFFFFFFFFFFFFFFFFFFFFFFFFFFFFFFFFFFFFFFFFCB
:20154000FFFFFFFFFFFFFFFFFFFFFFFFFFFFFFFFFFFFFFFFFFFFFFFFFFFFFFFFFFFFFFFFAB
:20156000FFFFFFFFFFFFFFFFFFFFFFFFFFFFFFFFFFFFFFFFFFFFFFFFFFFFFFFFFFFFFFFF8B
:20158000FFFFFFFFFFFFFFFFFFFFFFFFFFFFFFFFFFFFFFFFFFFFFFFFFFFFFFFFFFFFFFFF6B
:2015A000FFFFFFFFFFFFFFFFFFFFFFFFFFFFFFFFFFFFFFFFFFFFFFFFFFFFFFFFFFFFFFFF4B
:2015C000FFFFFFFFFFFFFFFFFFFFFFFFFFFFFFFFFFFFFFFFFFFFFFFFFFFFFFFFFFFFFFFF2B
:2015E000FFFFFFFFFFFFFFFFFFFFFFFFFFFFFFFFFFFFFFFFFFFFFFFFFFFFFFFFFFFFFFFF0B
:20160000FFFFFFFFFFFFFFFFFFFFFFFFFFFFFFFFFFFFFFFFFFFFFFFFFFFFFFFFFFFFFFFFEA
:20162000FFFFFFFFFFFFFFFFFFFFFFFFFFFFFFFFFFFFFFFFFFFFFFFFFFFFFFFFFFFFFFFFCA
:20164000FFFFFFFFFFFFFFFFFFFFFFFFFFFFFFFFFFFFFFFFFFFFFFFFFFFFFFFFFFFFFFFFAA
:20166000FFFFFFFFFFFFFFFFFFFFFFFFFFFFFFFFFFFFFFFFFFFFFFFFFFFFFFFFFFFFFFFF8A
:20168000FFFFFFFFFFFFFFFFFFFFFFFFFFFFFFFFFFFFFFFFFFFFFFFFFFFFFFFFFFFFFFFF6A
:2016A000FFFFFFFFFFFFFFFFFFFFFFFFFFFFFFFFFFFFFFFFFFFFFFFFFFFFFFFFFFFFFFFF4A
:2016C000FFFFFFFFFFFFFFFFFFFFFFFFFFFFFFFFFFFFFFFFFFFFFFFFFFFFFFFFFFFFFFFF2A
:2016E000FFFFFFFFFFFFFFFFFFFFFFFFFFFFFFFFFFFFFFFFFFFFFFFFFFFFFFFFFFFFFFFF0A
:20170000FFFFFFFFFFFFFFFFFFFFFFFFFFFFFFFFFFFFFFFFFFFFFFFFFFFFFFFFFFFFFFFFE9
:20172000FFFFFFFFFFFFFFFFFFFFFFFFFFFFFFFFFFFFFFFFFFFFFFFFFFFFFFFFFFFFFFFFC9
:20174000FFFFFFFFFFFFFFFFFFFFFFFFFFFFFFFFFFFFFFFFFFFFFFFFFFFFFFFFFFFFFFFFA9
:20176000FFFFFFFFFFFFFFFFFFFFFFFFFFFFFFFFFFFFFFFFFFFFFFFFFFFFFFFFFFFFFFFF89
:20178000FFFFFFFFFFFFFFFFFFFFFFFFFFFFFFFFFFFFFFFFFFFFFFFFFFFFFFFFFFFFFFFF69
:2017A000FFFFFFFFFFFFFFFFFFFFFFFFFFFFFFFFFFFFFFFFFFFFFFFFFFFFFFFFFFFFFFFF49
:2017C000FFFFFFFFFFFFFFFFFFFFFFFFFFFFFFFFFFFFFFFFFFFFFFFFFFFFFFFFFFFFFFFF29
:2017E000FFFFFFFFFFFFFFFFFFFFFFFFFFFFFFFFFFFFFFFFFFFFFFFFFFFF0426FFFEFFFFDE
:20180000021EF71958195D227FB8FF02635F5A2D5761766520342E353400FF0263211A7595
:201820001A7AFF0263641B511B56FF025138EF90183793901900730A20364CE560FF22EF67
:20184000F56022822D1C1613111010024CE11C871C8CFF026369C2D5E830E70FB2D5E4C3D2
:201860009BFBE49AFAE499F9E498F8EC30E717B2D512188C1229BDE4C39BFBE49AFAE499EF
:20188000F9E498F880031229BD30D50DE4C39FFFE49EFEE49DFDE49CFC22789CE4F6D8FDAA
:2018A0009000007F007E10E4F0A3DFFCDEFA904FFFA3E583C394204011FEAF829020000EC3
:2018C0000FE48002F0A3DFFCDEFA121920021F0922323F241E16110E0B09070504030201A4
:2018E000F0C8A791776760463835323024222014000101020203030404050506060707FFF4
:20190000C0607419C0E0C082C08375600AE5FF54CF4490F5FF22C0607419C0E0C082C08353
:20192000756020E5FF54CF4490F5FF22C0607419C0E0C082C083756036E5FF54CF44A0F504
:20194000FF22C0607419C0E0C082C08375604CE5FF54CF44B0F5FF2290800321169081FE09
:20196000211690828121169080D821169081E6211690949C21169095002116909527211643
:20198000908212211690829621169082D921169082E4211690830A2116908FA4211690825E
:2019A0009D211690AFD9211690B09B211690B934211690BA11211690BF83211690BF9B2198
:2019C0001690B55C211690AFE3211690C1E72116909C6F211690C5C3211690C5D82116903C
:2019E000C653211690C830211690C913211690C993211690821D211690BE41211690BDEBAE
:201A0000211690BE08211690BD48211690CA0A211690CA33211690CA6E211690CA742116D3
:201A200090CA8B211690B439211690C405211690C37F211690C54E211690CA78211690C00A
:201A40000C211690BC5F211690C5F2211690C04F211690D03D2116909B6C211690C72721CC
:201A60001690C57E211690C9F3211690C86D211690C8C3211690D1B4211690D1C32116903E
:201A8000CC0C212C908006212C90C04E212C90E3CF212C90C02E212C90CB97212C90D6894B
:201AA000212C90E3E8212C90E3E9212C90E3EF212C90D62D212C90DAFC212C90E3F8212C8E
:201AC00090DB8D212C90DB53212C90B34A212C90D772212C90E400212C90E41B212C90C8C1
:201AE00012212C90E2A5212C90E22A212C90E2B7212C90D77D212C909531212C90E4552106
:201B00002C909E5A212C9086FB212C90E47E212C90CEE8212C908868212C90E525212C9050
:201B2000E62F212C90E641212C909EAD212C90E5CF212C90E669212C908CCA212C90E66C45
:201B4000212C90E676212C90CD7B212C90E67C212C90E0AD212C90E682212C909779212CFF
:201B600090B7E0212C9087BF212C9087C2212C90E748212C90C9F4212C90EFF1212C90E0D5
:201B8000E8212C909C90212C90EA93212C90EE90212C90F2BB212C90F2D6212C90EE3D2147
:201BA0002C90CCD2212C9081E6212C90F325212C90F38C212C90F3BE212C90CDE3212C903E
:201BC000C7F6212C908F09212C90F47F212C90E0EB212C90F488212C90E120212C909D59D1
:201BE000212C90C7FF212C909D78212C90F4FA212C90F516212C90F529212C90F539212C4A
:201C000090B731212C90D08E212C90D451212C90D985212C90D96A212C90D8F2212C90D957
:201C2000AC212C90E34A212C90D8CB212C90D51D212C90DA88212C90D648212C90DB882104
:201C40002C90F761212C90DA93212C90F762212C90D7A6212C90D7B1212C90DC35212C9066
:201C6000D742212C90D82B212C90F768212C90F7B7212C90C091212C90AC68212C90891906
:201C8000212C90C7BB212C90D7D6212C90E370212C90F847212C908F10212C90899C21422E
:201CA0009089B42142908AAF2142908AB82142908ACD2142908ABC2142908980214290A7DD
:201CC0000C214290A734214290A777214290A821214290A63D214290A84D214290A8DC2107
:201CE0004290AD36214290AD6B214290803E214290878321429086A7214290AEFB214290C7
:201D000098F5214290AC40214290AF14214290AC7621429087CF214290AC15214290AA06EC
:201D2000214290B2BA214290B3BE2142909757214290B1D1214290A06321429098D72142CF
:201D400090B4012142908AD8214290880C21429089A7214290896B214290867221429089F1
:201D600087214290898A214290898D21429087B62142909BF7214290B4252142908AE421CA
:201D8000429087C0214290B43D2142908AEA214290913B21429096A521429096A8214290CE
:201DA000B5722142908820214290821A21429096AB21429080392142909932214290A02F72
:201DC000214290B627214290A07A214290A091214290880F2142908AED214290B700214201
:201DE00090B7752142908834214290B7A0214290A265214290B832214290A0222142908827
:201E00004F2142908252214290843F214290B9202142908227214290839F2142909890213D
:201E20004290AE2A214290818D21429081B821429098DF2142908268214290827F2142909D
:201E400094F0214290B4D42142909144214290C073214290C4B92142908000214290913EF0
:201E6000214290A037214290CD6E214290A050214290CDB7214290CDCF214290BC2D214242
:201E800000902DB0E47E0193700122A3FF543F30E509541FFEE493A360010ECF54E0B4E068
:201EA0003AEFFAEEF9E493FBA3E493FEA3E493FFA3E493FDC083C082C001C002C006C007C9
:201EC000121985D007D006D002D001D082D083A30FEF70010EDADAD9D880A954C025E06036
:201EE000105005A3DFFD809CA3A3A3DFFDDEFB8093A3A3DFFD808D75819C75FF03759E02E4
:201F0000121920023A430218D0902DB0E47E019360F4A3FF543F30E509541FFEE493A36018
:201F2000010ECF54E0B4E00EEFFAEEF9A3A3A3A3DAFDD9FB80D654C025E0604B5026E493DF
:201F4000A3F85407240CC8C333C4540F4420C8834004F456800146F6DFE480B0010204087A
:201F600010204080E493A3FAE493A3F8E493A3C8C582C8CAC583CAF0A3C8C582C8CAC58302
:201F8000CADFE9DEE78085E493A3F8E493A34003F68001F208DFF4021F0C5E86725985735E
:201FA000718480303170987A5AEF5E86725985737184803031707A5AEF5E98845AEF5E8629
:201FC00072845985737180303170987A1DBD1DC21DC71DCC1DD611224488012B7C012B7E1C
:201FE000012B7F012B81012B820201020101010204081019A319B219B719BC19C119CBFFCC
:20200000DFFE22A2AF92D5C2AF3104EF313B3188EC313B3188ED313B3188310474014F3102
:202020003B31887980800631BC31EDF709DBF831BC31FCF75135A2D592AF22A2AF92D5C264
:20204000AF3104EF313B3188EC313B3188ED313B31887980E7313B318809DBF85135A2D587
:2020600092AF22A2AF92D5C2AF3104EF313B3188ED313B3188516C310474014F313B31889E
:20208000516C7980800631BC31EDF709DBF831BC31FCF75135A2D592AF22A2AF92D5C2AF8C
:2020A0003104EF313B3188ED313B31887980E7313B318809DBF8516C5135A2D592AF22A225
:2020C000AF92D5C2AF310474014F313B31887980800631BC31EDF709DDF831BC31FCF7519A
:2020E00035A2D592AF22A2AF92D5C2AF3104EF313B31887980E7313B318809DDF85135A254
:20210000D592AF2275FF014353024357028553FD75FF014353014357018553FD516CC2818D
:2021200075FF015353FD8553FDC281516CC28075FF015353FE8553FDC280227808C28075E7
:20214000FF015353FE8553FDC28033400FC28175FF015353FD8553FDC281800C75FF01438B
:2021600053024357028553FD516C75FF014353014357018553FD516CD8C3C28075FF0153FE
:2021800053FE8553FDC2802275FF014353024357028553FD516C75FF01435301435701854E
:2021A00053FD516CA281724A924A00000000C28075FF015353FE8553FDC2802275FF01430B
:2021C00053024357028553FD780875FF014353014357018553FD516CA28133C28075FF0173
:2021E0005353FE8553FDC280516CD8DE22C28175FF015353FD8553FDC281800E75FF0143D6
:2022000053024357028553FD516C75FF014353014357018553FD516CC28075FF015353FEA7
:202220008553FDC280516CC28175FF015353FD8553FDC28122C28175FF015353FD8553FD05
:20224000C281C28075FF015353FE8553FDC280516C75FF014353014357018553FD516C755E
:20226000FF014353024357028553FD22000000000000000000000000000000000000000033
:20228000000000000000000000000000000000000000000000000000002202265BE86480CD
:2022A000F8E933E83360110460F0ED33EC337009E8FCE9FDEAFEEBFF220460DED3EB9FEA2B
:2022C0009EE99DE8C2E78CF0C2F795F0400CE8CCF8E9CDF9EACEFAEBCFFB12262685D0F0DE
:2022E0005804700320D5B3E80470075002B2D502266592D5EC0460F7E4CCC0E0C398F860ED
:202300003B94186008400DD0E0FB02263DE4FBFAC9FC8028E830E406E4C9FBE4CAFCE8305F
:20232000E305E4C9CACBFCE854076010F8C3E913F9EA13FAEB13FBEC13FCD8F130F52FC349
:20234000E49CFCEF9BFFEE9AFEED99FDD0E0FBEF4E4D4C701222DB03022662EC2CFCEF33AC
:20236000FFEE33FEED33FDED30E7EB02263DEF2BFFEE3AFEED39FDD0E0FB50130BBB000395
:20238000022665ED13FDEE13FEEF13FFEC13FC02263DEC4D6011E8497017ED33EC3304604E
:2023A0000DE4FCFFFEFD22E933E8330470F802265B12262658046009E4CC248150062850A8
:2023C00009022665284003022662C0E0EB4A7044B98006D0E0FB022651EF4E701CBD800878
:2023E000EBFFEAFEE9FD80EBE98DF0A4FEE5F002247BE9CDF9EAFEEBFFEF89F0A4FCE5F0DE
:20240000CE89F0A42EFFE435F0CD89F0A42DFEE435F08067EF4E7005BD80D780C3EF8BF023
:20242000A4ACF0EE8BF0A42CFCE435F0F8EF8AF0A42CE5F038FCE433CB8DF0A42CFCE5F0E4
:202440003BF8EE8AF0A42CFCE5F038F8E433CF89F0A42CFCE5F038CF3400CE89F0A42FFFBC
:20246000E5F03EFEE433C98DF0A42EFEE5F039CD8AF0A42FFFE5F03EFEE43DFD33D0E0FBEA
:2024800050070BBB000F022665EC2CFCEF33FFEE33FEED33FD02263D022665EC5D0460056E
:2024A000E85904700302265B122626580460F6EC4860F2EC7004FDFEFF22C860DB2481C85F
:2024C0005009C398600250060226629850CAF582E9294B4A7005AB8202265175F0007C1A20
:2024E0007880C3EF9BEE9AED99400DC3EF9BFFEE9AFEED99FDE842F0DC23ACF0D0E0FFD0B3
:20250000E0FED0E0FDAB8220E7101BEB60BAEC2CFCEF33FFEE33FEED33FD02263DE803F813
:2025200030E705C0F075F000EF2FFFEE33FEED33FD40B830E7C280AA74F8CC6480CCC86402
:2025400080C8F58204604FC3EB9FF5F0EA9E42F0E99D42F0E89C45F0603C501DE5825FFFDE
:20256000E582D313CB5BCBF42B5582FB50280ABA002409B9002008801DE5825BFBE582D34E
:2025800013CF5FCFF4C3132F5582FF50090EBE00050DBD00010CC3EB9FF5F0EA9E42F0E986
:2025A0009D42F0E89C45F06007CC4820E701B3EC2275F020800E75F010800575F0087D0058
:2025C0007E007F003392D530D503122A69EC334010EF33FFEE33FEED33FDEC33FCD5F0ED1E
:2025E00022E5F0247EA2D513CC92E7CDCEFF22EDD2E7CD33EC3392D524814006E4FFFEFDC2
:20260000FC22FCE4CFCECDCC24E0501174FF80EDC3CC13CCCD13CDCE13CECF13CF0470F062
:2026200030D5DE022A69E9D2E7C933E833F892D5EDD2E7CD33EC33FC5002B2D522EC30E74B
:20264000100FBF000C0EBE00080DBD00040BEB6014A2D5EB13FCED92E7FD2274FFFCFDFE24
:20266000FF22E480F8A2D574FF13FC7D80E480EFE709F608DFFA8046E709F208DFFA803E86
:2026800088828C83E709F0A3DFFA8032E309F608DFFA8078E309F208DFFA807088828C8390
:2026A000E309F0A3DFFA806489828A83E0A3F608DFFA805889828A83E0A3F208DFFA804C5A
:2026C00080D280FA80C680D4806980F28033801080A680EA809A80A880DA80E280CA80336B
:2026E00089828A83ECFAE493A3C8C582C8CCC583CCF0A3C8C582C8CCC583CCDFE9DEE780B4
:202700000D89828A83E493A3F608DFF9ECFAA9F0EDFB2289828A83ECFAE0A3C8C582C8CCF7
:20272000C583CCF0A3C8C582C8CCC583CCDFEADEE880DB89828A83E493A3F208DFF980CC01
:2027400088F0EF60010E4E60C388F0ED2402B4040050B9F582EB2402B4040050AF2323451C
:2027600082239026C073BB010689828A83E0225002E722BBFE02E32289828A83E49322BB68
:20278000010CE58229F582E5833AF583E0225006E92582F8E622BBFE06E92582F8E222E5F3
:2027A0008229F582E5833AF583E49322BB010989828A83F8E028F022500327F722BBFE0504
:2027C000F8E328F3228A838982F8E4932822BB010689828A83F0225002F722BBFE01F322EA
:2027E000F8BB010DE58229F582E5833AF583E8F0225006E92582C8F622BBFE05E92582C821
:20280000F222EF8DF0A4A8F0CF8CF0A428CE8DF0A42EFE22BC000BBE0029EF8DF084FFAD5E
:20282000F022E4CCF875F008EF2FFFEE33FEEC33FCEE9DEC984005FCEE9DFE0FD5F0E9E4A0
:20284000CEFD22EDF8F5F0EE8420D21CFEADF075F008EF2FFFED33FD4007985006D5F0F213
:2028600022C398FD0FD5F0EA22C5F0F8A3E028F0C5F0F8E582158270021583E038F022A334
:20288000F8E0C5F025F0F0E582158270021583E0C838F0E822BB010A89828A83E0F5F0A37E
:2028A000E022500687F009E71922BBFE07E3F5F009E3192289828A83E493F5F074019322D1
:2028C000BB0110E58229F582E5833AF583E0F5F0A3E0225009E92582F886F008E622BBFE81
:2028E0000AE92582F8E2F5F008E222E5832AF583E993F5F0A3E99322BB010A89828A83F0F9
:20290000E5F0A3F0225006F709A7F01922BBFE06F3E5F009F31922EF2BFFEE3AFEED39FDE5
:20292000EC38FC22C3EF9BFFEE9AFEED99FDEC98FC22E88FF0A4CC8BF0A42CFCE98EF0A435
:202940002CFC8AF0EDA42CFCEA8EF0A4CDA8F08BF0A42DCC3825F0FDE98FF0A42CCD35F01F
:20296000FCEB8EF0A4FEA9F0EB8FF0A4CFC5F02ECD39FEE43CFCEAA42DCE35F0FDE43CFC10
:202980002275F008758200EF2FFFEE33FECD33CDCC33CCC58233C5829BED9AEC99E5829876
:2029A000400CF582EE9BFEED9AFDEC99FC0FD5F0D6E4CEFBE4CDFAE4CCF9A88222B800C158
:2029C000B90059BA002DEC8BF084CFCECDFCE5F0CBF97818EF2FFFEE33FEED33FDEC33FC10
:2029E000EB33FB10D703994004EB99FB0FD8E5E4F9FA227818EF2FFFEE33FEED33FDEC33AB
:202A0000FCC933C910D7059BE99A4007EC9BFCE99AF90FD8E0E4C9FAE4CCFB2275F010EF06
:202A20002FFFEE33FEED33FDCC33CCC833C810D7079BEC9AE899400AED9BFDEC9AFCE8993C
:202A4000F80FD5F0DAE4CDFBE4CCFAE4C8F922EF5BFFEE5AFEED59FDEC58FC22EF4BFFEE58
:202A60004AFEED49FDEC48FC22C3E49FFFE49EFEE49DFDE49CFC22EB9FF5F0EA9E42F0E996
:202A80009D42F0EC6480C864809845F022EB9FF5F0EA9E42F0E99D42F0E89C45F022E860F8
:202AA0000FECC313FCED13FDEE13FEEF13FFD8F122E86010ECA2E713FCED13FDEE13FEEF9A
:202AC00013FFD8F022E8600FEFC333FFEE33FEED33FDEC33FCD8F122BB010789828A8302A0
:202AE0002B425005E9F8022D36BBFE05E9F8022D4289828A83022B4EBB010DE58229F5825B
:202B0000E5833AF583022B425007E92582F8022D36BBFE07E92582F8022D42E58229F58228
:202B2000E5833AF583022B4EBB010789828A83022BCF5005E9F8022D68BBFE05E9F8022D8E
:202B40007422E0FCA3E0FDA3E0FEA3E0FF22E493FC740193FD740293FE740393FF22E0F8DC
:202B6000A3E0F9A3E0FAA3E0FB22E493F8740193F9740293FA740393FB22BB010789828ACA
:202B800083022B5E5005E9F8022D4EBBFE05E9F8022D5B89828A83022B6A7401FF3395E080
:202BA000FEFDFCA3A3A3E0CF2FF0E582158270021583E0CE3EF0E582158270021583E0CDCE
:202BC0003DF0E582158270021583E0CC3CF022ECF0A3EDF0A3EEF0A3EFF022A8828583F023
:202BE000D083D082122BF2122BF2122BF2122BF2E473E493A3C583C5F0C583C8C582C8F0F7
:202C0000A3C583C5F0C583C8C582C822A42582F582E5F03583F58322E0FBA3E0FAA3E0F916
:202C200022F8E0FBA3A3E0F925F0F0E582158270021583E0FA38F022EBF0A3EAF0A3E9F07B
:202C400022BB010789828A83022C185005E9F8022D80BBFE05E9F8022D9289828A83022DA5
:202C6000A4BB011A89828A83D0F0D0E0F8D0E0F9D0E0FAD0E0FBE8C0E0C0F0022C38501658
:202C8000E9F8D083D082D0E0F9D0E0FAD0E0FBC082C083022D89BBFE16E9F8D083D082D04E
:202CA000E0F9D0E0FAD0E0FBC082C083022D9B22D083D082F8E4937012740193700DA3A314
:202CC00093F8740193F5828883E4737402936860EFA3A3A380DFD083D082F8E49370127476
:202CE0000193700DA3A393F8740193F5828883E473740293B5F0067403936860E9A3A3A3B9
:202D0000A380D88A838982E473EC8EF0A4CCC5F0CCCDF8EFA4CEC5F02DFDE43CFCE8A42E13
:202D2000C8C5F03DFDE43CFCEFA4FFE5F028FEE43DFDE43CFC22E6FC08E6FD08E6FE08E630
:202D4000FF22E2FC08E2FD08E2FE08E2FF22E6FB08E6F908E6FA08E6CBF822E2FB08E2F957
:202D600008E2FA08E2CBF822ECF608EDF608EEF608EFF622ECF208EDF208EEF208EFF22220
:202D8000E6FB08E6FA08E6F922EBF608EAF608E9F622E2FB08E2FA08E2F922EBF208EAF208
:202DA00008E9F222E493FB740193FA740293F922412CFD004102B20041349E00C151C139F8
:202DC000410415060114004104140141041301C12F011A00011700C130C132C12641253344
:202DE00000412599FF41259100C125C12441259A0041259B0041259201C12841253200C1D7
:202E000035C12C013000C129C12A4331E00000004131DF004131E3000120004129AD004117
:202E20003158FF413153FFC1B6C13841315200C137412C8F00412C9800412C9C00412C9B08
:202E400000412C9700412C9200422C900000422C9E0000C15F412C0A00412C1128412C17A4
:202E600000422C080000412C1600412C0700412C0D0043330B00000041330E00432B4500B5
:202E80000000412B4A00C160492B3B4C6966656C696E65004E2B4B20013003800331057142
:202EA0000584075A014134C20041320D0041320B0041320C00412AB532C161422A9A0000F9
:202EC000422AB10000422AA503E8422AA30000422AB30000422AA00000422A9CFFFF412A2E
:202EE000A800412DD500412DD3004132A2FF4132A0FF41329F0A4232120000C14041321456
:202F0000004133CC0A4133CD004133CE004129E41E4229F300004229EE00004229EC0FFF5C
:202F20004229FE00004129E8004229E502034129EB004121C3004122840041207000C1424C
:202F4000C14141206EFF412026004121C402412210FF4121FE0041271300412765FF605029
:202F6000271401030300000505001C370501001C37000701000002030300000201001C37F3
:202F80000306001C370301001C370101001C37010202000000080400000404050000000407
:202FA000051C410005000000FF03FE0000FFFFFE1C325927690207D01C3C0307D01C3C050F
:202FC00000141C3C0107D01C3C0407D01C3C412680FF4126FCFF41270FFF412710FF412785
:202FE0000E004127030041270D0043270800000041270C004326FD000000412702004127C5
:203000000B00422711000042270400004227060000609625E900000000000000000000004B
:20302000000000000000000000000000000000000000000000000000000000000000000090
:20304000000000000000000000000000000000000000000000000000000000000000000070
:20306000000000000000000000000000000000000000000000000000000000000000000050
:20308000000000000000000000000000000000000000000000000000000000000000000030
:2030A00000000000000000000000004132A7004132A5004132A400C144C1434132A3FF4168
:2030C00032A60041319300502ABAA81FFF7F3F3F079FFFFFFFFFFF1313FF502ACA0003000F
:2030E00000000100010080808080830300C114C10FC111C10CC116C108C10AC10BC109C142
:203100001AC118C11BC10EC115C110C112C10DC117C11C412B7B00412B7A00412B86004114
:203120002B8500412B8E00C119C193412B8800422B780000412B7500422EA6F448C178442E
:2031400030EC000000004230F000004130F300442B2B00000000442B2F00000000442B33B3
:2031600000000000442B3700000000422B1C0000422B1E000060402966004057340398748C
:20318000BC002B0A480000AFBB000A228D017E7248038E3A947B6B01000025352F0218A908
:2031A000FC001B199A00006DAC0006600600C30DEE0388EE64DB8F010041340C0041340DB7
:2031C0000041340B004132DE004132DC00442924000000006030292B0000177000003A9801
:2031E0000000753000009C400000C3500000EA60000111700001388000015F90000186A09F
:203200000001ADB00001D4C041292A00E00C0261250086000000020064010F043641341AEE
:203220000042341B000000000000000000000000000000000000001C4B1C501C551C5A1C27
:203240005F1C641C691C6E980500000DFA20000DDC7000000000020C00013F3F3F0404048B
:20326000F1000000000E1000000E1000000E100102040800000000000000000000000000F4
:2032800000000000000019F819FD1A021A071A0C1A111A1B1A2AC3791C0A1C0F1C141C190E
:2032A0001C1E1C231C281C2D0014012204881220488080000204061B331B381B3D1B421B4E
:2032C000471C321C371C3C1C411C461AB61ABB1AC01AC51ACF1AE31AE81AED1B061B0B1B40
:2032E000101B1A1B1F1B241BAB1BB01BB51BC41BCE1BDD1DEF1DF400000B69400000001A04
:20330000521A5C1B4C1B921BF11D271E1C7F01B18B902CF5E0122CB0333404333C143341AA
:2033200015334617335630335B343360363365370000334E5357EF855780802F5358EF8096
:20334000085358DF800353587F855890801D5359DF8559A08015535AFE800D535AEF80082A
:20336000535ABF8003535A7F855AB07F0CDFFE227F01B18B90349B7401F090349BE0602ECC
:2033800071EA910790349BEFF091AD71F6902CF1EFF091AD90349BE05401F19460DCA3E0B5
:2033A000F460D7EF30E7D3E490349BF080CC71117F9F71EE9107902CF29105902CF7910566
:2033C000902CF8EFF0B187902CF0E0F4601BA3E0F46016902CF7E0FD541F240FA3F0EDC4C0
:2033E0001354074480902CF7F02271117F05E5C820E2FB8FEB2271117FD771EE7FFF71EE76
:20340000910B902CF0EFF07FFF71EEE5C820E2FBAFEB227F01B18B304F1471EA910790343C
:203420009DEFF091AD90349DE020E002C24F304F1771F6902CF1EFF194600BA3E0F4600618
:20344000EF30E702C24F91ADE4FFB18BA24FE433FF22903262122BCF903262122B42B197B2
:20346000903266E06F6038D1819113EF6004D16D80F791A17111902CF3E0FFD164600790D1
:203480003262D1CA71EE903262D1C071EE903262122B42E471EE903266E0FFB185D322C3AF
:2034A000227F01B18BD24F71117F0671EEF1E9EF70FB902CF7E0F4600A90349A7406F0F1C9
:2034C0006E70FC902CF5E0122CB034E60434EA1434EF1534F417350430350934350E363543
:2034E0001337000034FCF18D802F43581080084358208003435880855890801D435920854E
:2035000059A08015435A01800D435A108008435A408003435A80855AB090349A740CF0F1F2
:203520006E70FC22902F65122BCF902F69122C38D1819113EF6004D16D80F791A17111907F
:203540002CF3E0FFD1646007902F65D1CA71EE902F65D1C071EE902F65122B42E4801C90EC
:203560002F6CF19C6019902F69F167600C902F69E412694A1227668001E4FF71EE80E0919A
:20358000ADE4FF800671EE91ADE4FFEFB4010443FE202253FEDF2290325D122BCFD181910A
:2035A00013EF6004D16D80F7D15C600790325DD1CA71EE90325DD1C071EE90325D122B4296
:2035C000E471EE9107903261EFF0B187903261E0FF22902F6E122BCF902F72122C38D18180
:2035E0009113EF6004D16D80F7D15C6007902F6ED1CA71EE902F6ED1C071EE902F6E122BDD
:2036000042E471EE902F75F19C60149107902F72122C18EF1227CE902F73E4F1F680E591E8
:20362000ADE4FFA18BD1819113EF6004D16D80F791A171117F0171EE7F0371EE91ADE4FF3B
:20364000A18B902CF0E020E012710D7F3D71EE7F2A71EE7F8071EE7FA6B185227F01B18B68
:2036600071117F0371EE902CF6E0640222E51530E20EE51520E509E51530E0047F01F1AA82
:203680002275FF02E5E430E10675E40675E4032290349CEFF0902CFEE064027022710D90F6
:2036A000349CE07FAB60027FB971EE91AD90349CE0902CFDF070047F1EDFFEE4FFB18B22E1
:2036C000122B427808122A9EE422122B427810122A9EE422902888EEF0A3F1EF9028901229
:2036E0002BCF90288EE0FFA3E0902894CF8069902894E0FEA3E0FF4E6064C3EF9440EE945E
:20370000004006A37440F08005902896EFF0F176FF126D62EFF0902890122B42B1D2902842
:2037200096E0FFC3902895E09FF0902894E09400F0902890122B5E902896E4FCFDFE12299E
:2037400017902890122BCFF15EF176FD126FDAEDF01219F3902888EEF0A3EFF0809190288C
:2037600088E0FEA3E0FF22122C18EA494B2290349AE014F0E0227B017A287997902896E0A9
:2037800022D1819113EF6004D16D80F72243571085578022F0902CF0E0FFF42274FFF5F0D6
:2037A00012287F45F022EFF07F01EF600A123CC8E4FD124EF08009F1C3124F98E433FF228C
:2037C0007F0122F1CEEF7005123CDA80F622E4FF123E73E054F0FEBE40037F00220FEFB448
:2037E00003EE7F0122E4FFA18BE5C85404FF22EFF0A3022B42E475F001022869902CF2E0A5
:203800001227CE902CF7E09000011227E0902CF8E09000020227E07A2C79F57F03F1517AE3
:203820002C79FE7D017F081219E97B017A2C79FB7D027F0931DC7B017A2C79F97D027F0B85
:2038400031DC902CF9E0FEA3E0FF4E6006BEFF1BBFFF18902CFEE024FD600304700431DF3E
:203860008009902CF9E4F0A37440F0902CFEE024FD6003047008902CF67403F08006902CFA
:20388000F67402F0902CF5E0122CB038A70438AC1438B41538BC1738D23038DA3438E23696
:2038A00038EA37000038C7127024804775FF015354EF800E75FF015354DF800675FF015361
:2038C000547F8554C9802C75FF015355DF8555CA802175FF015356FE801675FF015356EFC7
:2038E000800E75FF015356BF800675FF0153567F8556CB1234AD7F1131CEE4FF1236901245
:203900003370902CF37402F0902CF7E0247F600904701631D4740A800712364231D4745861
:20392000F0902CF67403F031DF902CF8E0F4600221CB902CFBE0FEA3E0FF64104E700690B9
:203940002CF8740EF0EF64204E7006902CF8740FF0EF64404E7006902CF87410F0EF648021
:203960004E7006902CF87411F0E4B5070AEEB40106902CF87412F0E4B5070AEEB4020690F9
:203980002CF87413F0E4B5070AEEB40406902CF87414F0E4B5070AEEB40806902CF8741573
:2039A000F0E4B5070AEEB41006902CF87416F0E4B5070AEEB42006902CF87417F0E4B50746
:2039C0000AEEB44006902CF87418F0023625EF4420F5FE227F1031CE902CF3220219E9900D
:2039E0002CF97401F0A3E4F0221117F1E21219D512526C9002B3E064017F0060027F0112DC
:203A00001A3E121A431219AD126EBA121976F14AE0FE4FFDA3E0FC4DFDA3E0FB4D600BEEDA
:203A20005FFFEC5FFFEB5FF47002D1DA90121CE0FF540324B6F582E43402F583E06F9002CB
:203A4000B1F02275FF0275E404E4F5E4C22E75FF02901215E0603CE5E6540364017034123D
:203A60001A661259CF4020901222E0600DE014F0700812189AE4901215F0901215E0700267
:203A8000610A124B12610A12189AD22EE4901215F0807712189A125DE29002B3EFF09012C0
:203AA00000E0B47A14901214E0B49C0D9002B3E0FF64056004EFB4032EE49002BCF0900278
:203AC000BCE0FFC394405013E42FF582E43412F583E4F09002BCE004F080E3901200747A3C
:203AE000F0901214749CF01219EE7B017A1279107D017F011219E97A1279117F21F1517AF2
:203B00001279127D017F221219E9121A6B125DE21250D59002B3EFF01219DF125090900204
:203B2000B3E0FFB40602800C302E047F0280059002B3E0FF121A7FEF24FFB3925175FF0256
:203B400053E6BF9002B3E064016005E4901215F012511C121A7031E9901215E0700F205137
:203B60000C121A847B017A25799D121A2090121DE030E0028003302E057F011237AAD2AF81
:203B8000205102810312524E124BA6121AA21219E440F29002B2E06042D186EF7005125384
:203BA0000D4038E51470FCE51520E503124F98121971EF70FA125DA75005125D9350057FEA
:203BC000011236909002B2E0B40204E4FF80099002B2E0B403057F01124B2F91DAE5153041
:203BE000E1A3D1C54002E4F0E51520E50791C87D01124EF09002BC91CB9002B5E0FD12196F
:203C0000D08082125020124FED5002D1DA9002B2E0605E902533E07058D186EF7005125373
:203C20000D404EE51470FCE51520E50A90121DE020E003124F98121971EF70FA125DA75085
:203C400005125D9350057F011236909002B2E0B40203E480189002B2E0B403047F01800E6A
:203C60009002B2E0B4050A9012157401F0FF124B2F12524E124BA6121A989002B0E07004A7
:203C800091DA801512505CFF9002B0E0FEC3EF9EC394064002E4F0D2AD121807E51530E1C9
:203CA0001FD1C54002E4F0E51520E50791C87D01124EF09002BC91CB9002B5E0FD1219D043
:203CC000121A5712507B81039002B4E075F0AA9002BF122C0CAF82AE8322E4900449F1DA20
:203CE00075F0E5E55ED177E054F064407002C12EE4FE75F0E5EED177E0FDB4010990044AEB
:203D0000EEF0E4FF8023EDB4020B90044AE0B4FF04EEF0800F75F0E5EED177E054F0FDBD51
:203D200080027F010EEEB403C9EF600690044A74FFF090044AE0F47002C12E12532850027D
:203D4000C12EE51530E102C12E90044AE0900004D19830E408900006D1AA549FF090044ACF
:203D6000E09000B8D198540FFEBE05089000BCD1AA30E11490044AE0900003D1B320E5219F
:203D80009000BBD1BCB4FF1990044AE0D1A1C083C082E04401FFA3E0D082D083CFF0A3EF2D
:203DA000F090044AE0FDD1A1E0FEA3E0FFC006C007ED75F0E5A424B3F9740035F0FA7B013F
:203DC000C002C00190044AE09000D9D1B390042CF0EF75F0E5A42409F9740035F0FAA312BA
:203DE0002C3890044AE0FF75F0E59000B2122C0CE0900430F09000DAD1BC900431F0E4A305
:203E0000F0D001D002D007D0061253F3502090044AE0F55E75F0E5D177E04440F0900449C6
:203E20007401F09022A2F0E51530E202D322E51530E2397F04D17D75F0E5E55ED177E0FF0C
:203E400054F06440702175F0E5E55ED177EF540FF075F0E5E55ED177E04480F0E55EF15BDA
:203E60007B011219A880057F011237AA900449E024FF2275F0E5EF900001022C0CC2AFEF95
:203E8000F45215D2AF22E4FFD173E060037F00220FEFB403F37F0122FF75F0E5122C0CE05C
:203EA0002275F0E5900005022C0C75F0E5EF122C0CE022FF75F0E5122C0CE02275F0E5EF74
:203EC000122C0CE0227F02D17D9002B4E09002BCF09002B404F0C3940222E4FF1237AAEFE9
:203EE00060447B017A0279B6F1279002B6E0C394C040EF7B017A0279B8F127F14AE05FFFB7
:203F0000A3E05FFFA3E05FF460E990121DE030E0057F011237AAE490121CF07B017A027977
:203F2000B6E0FD12197B2290043F122C38C252E4FF1237AABF010B90043F122C1812452781
:203F400092527F011237AAA252229002B6E0FFA3227B017D011219E97B012275F0E5A4244A
:203F600001F9740035F0FA22900447EFF1DAFEFD75F0E5EDD177E0FC700C900448E0B4FFBC
:203F800002EDF00F8006EC30E0027E010DEDB403DF900447E06401600DEFC394025007EE86
:203FA0007004A374FFF0900448E0FFC394035023EFF15B7B017DE5E4FF12196C900447E0B1
:203FC0004410FFA3E0FE75F0E5D177EFF0EEF15B7B01227B007A00790022F0A374FFF0E45A
:203FE000FF22E4FFD173E4F00FEFB403F7E4F55E22E075F002A42481F9740F35F07B02FEF4
:20400000AF01E4FCFD023597FEAF01E4FDAB05E4FCFD903266EBF0023452FEAF017B007AFB
:204020000079929031C07404F09031BD1148C0079031BD122C189031C0E0FF902F75E4F0B2
:20404000A3EFF0D0070235D2122C38E4FCFD2290310E1148C00790310E122C189031111291
:204060006D95D007902E4D3151122C38902E51122C18902E54124A0F902E4D122B42F1F512
:2040800050022127902CFAE024FFFF902CF9E034FFFEE4FCFD902E4D126F9B902E56EEF012
:2040A000A3EFF04E60393147902CFAE09FFF902CF9E09EFE902E56F0A3EFF0902E54315899
:2040C0009FEC9E5003125715312931683151122C18E94A6004315F80417E007F00803B90EB
:2040E0002E54E0FEA3E0FF4E603B902CF93158EF9DEE9C400A902E56ECF0A3EDF0800690D1
:204100002E54126FAE312931683151122C18E94A6004315F80047E007F00902E52EE8FF0FE
:2041200012286980BAD322C322902E51122C18902E56E0FFA3E0902F6CCFF0A3EFF0902EC3
:204140004D122B42123524902E56E0FEA3E0FFC322122BCF902E5122E0FCA3E0FDD32290B1
:204160002E56E0FEA3E0FF22902E55E09FF0902E54E09EF0902E4D122B5EE4FCFD12291762
:20418000902E4D22902BC3122BCFE4F5FF75BB0575BB8575FF0175D502205405F146125BC8
:2041A000EE75FF0143D520305402414CE4F5FF538EF7438E077D04E4F5FF8DBCF5FF43B13F
:2041C00002E5B130E2FBE4F5FFAFDFEFFEACDEECFBEBFFED25E024C1F582E4342B124C7825
:2041E000F0E4F5FFF5FF53B1FD0DEDB40CC9902BC371E9FF7809122A9EA3EEF0A3EFF0E466
:20420000FDED25E024CBF582E4342BF583E0C313FAA3E013FBF12CE0C313FEA3E0132BFFBC
:20422000EE3AFEF12CEEF0A3EFF0ED240490120DF0EDC394075015CFEDCF0DEFF12D314A57
:20424000902BC8E09F902BC7E09E50B5E4F5FF758EC8F5FF90120DE0F5BCE4F5FF75BB80F8
:2042600075FF01F5D522902B90122BCF75FF0243E180125C38F19D902BA5122BDB002DC6CD
:20428000C0E4F5FFF5A490120EF0A3F0902BA07402F0F1CDFFF595EF146018146026240277
:2042A0007036902B9071E9FF902BA1122BCF902B9C8020902B9471E9FF902BA1122BCF90B5
:2042C0002B9D800F902B9871E9FF902BA1122BCF902B9EE0902BA9F0126065902BA9E0705B
:2042E0000FF5FFF59675FF0175D70975F418805B90120EE004F0902BA0E0124FE5902BA5A5
:2043000071E9FF902BA1F1DEFBC3122A8D500A902BA171E9FFA3122BCF902BA9E0FF125E21
:20432000E6902B9FE0FFA3E0FDA2579255125F45A371E9FF903272122BCF902BA0E0FFD101
:2043400072902BA0E071DCFF125C89F1D5600241927402F0F1CDF595E5F454077017902B4E
:20436000A571F4F114902BA0F106F583122BCF71DBFF125C89F1D570DB75FF037595809074
:20438000120EE0D39401400343F420A2579256125F97902BA571E92420FFEE344E9116FC22
:2043A000E4FB7A04F9F89104F114C2543184E4F5FFE5BD54F84404F5BD9012137401F07EF2
:2043C000127F01E4FDEF2DF582E43EF583E0FC901213E02CF00DEDB412EB22EB25E025E0EE
:2043E0002401F582E43412F583E0FCA3E0FDA3E0FEA3E022FF7E04FDFCE0F8A3E0F9A3E0AC
:20440000FAA3E0FB122932E47B7DFAF9F81229BDEF2401FFE43EFEE43DFDE43C229031287C
:20442000124B58EBF090312E7401F0C258F1BAF1215005E5FC20E6F7F173BF0108E4F5FC8D
:2044400075FC408007F173BF0202D322125AFE903129E0FF12620C75FF0153D5DF53FAFB91
:20446000903128E0FF124ED5903129E0903128B4080AE071DC24529113FC8004E071DCFFD3
:20448000125C8990312AE0FF12626575FF0175FF03759B04F1BA75FC42E5FC20E104F1212C
:2044A00040F490312BE0F075FF03E59B20E704F12140F4E59B20E70D75FF03759B1F125C1C
:2044C00038D258804FF11A125CD7903129E0FD90120FE05D701C903128E0FFF11A12607263
:2044E00090120FE0FF903129E0FEEF4E90120FF071B9125BEE7B017A31792C125C1B500F4D
:20450000C390312DE0942090312CE0940340E6F11A125D06F14D305802812590312EE0B45B
:204520000103D38001C322902E58125CCE902E5E122BDB00000001902E627401F0F5FFE559
:20454000D554C07005124FC05002C322E4F5FF53967F75FF0175D504F14675FF0143D508D6
:20456000E4F5FF5394FBF5FF53847FF5FF7598FF902E5CE5F4F075F49C75FF01A3E5E4F07E
:2045800075E4257B017A2E7962125CD7902E62E064016002C150F5FF902E5B7414F0902E3E
:2045A0005E71E9FF7801122AC5902E5E122BCFE5A730E1FB43A702902E5E71E9FFE5A730ED
:2045C000E005E47B018002E4FBFAF9F8EF4BFFEE4AFEED49FDEC48FC902E5E122BCF902E92
:2045E0005BE014F070B8902E5E71E9FF7810122A9E7B6D7A4E79C67841122932EF2439FF1D
:20460000EE34309116FCE4FBFA7901F81229BDEE547FFEE4FDFC1261FF902E5E71E9FFEBF4
:204620006FFFEA6EFEE8CDEFCDCCEECCECFF902E58F1ECEF1227CE902E58F1EC900001ED7A
:204640001227E090120FE030E606E4F5FF75968075FF01E4F5D5902E5CE0F5F475FF01A313
:20466000E0F5E4125F34902E62E0B40103D38001C322903271EFF0E4A371F4F114903271B5
:20468000F106F583122BCF901210E0FF64806075EFC3947F503AEBF108F583C083C08271B4
:2046A000E9FFEEC0E0EFC0E0901210E075F004A4AEF0FBCAEECAEA3395E0F9F8D0E0FFD039
:2046C000E0FEC3EF9BFFEE9AFEED99FDEC98802D903271E0F108F583C083C082F1DEFB9013
:2046E0001210E0F40475F004A4FFAEF0EE3395E0FDFCEB2FFFEA3EFEE93DFDE83CFCD082B3
:20470000D083122BCF22E0FB25E025E02401F582E4341222FC7801022A9E7B017A31792E3E
:204720002275FF03E591C330E701D322ED25E024C9F582E4342BF583227FC87E00F15675E6
:20474000FF03439180227F3FFEF156F13F75FF03E59120E7FB2275FF03D3EF9402EE94004C
:20476000400874FE2FFF74FF3EFEEFF592EE540FF591227FFAF13BE5FC30E604F12140F74A
:20478000E5FC30E6037F032275FF01E5D530E6037F0222E5D57F0030E7027F0122F1C35395
:2047A000DB7F75FF0175D5027F14F13BF14DF1C343DB8075FF01E4F5D5227FE87E03125CF4
:2047C00054E13F75FF01438E1075FF012275FF03902BA0E022902BA0E0FF14F0EF22E0F87D
:2047E000A3E0F9A3E0FAA3E0229032F0E0FBA3E0FAA3E0F922902A07122BCF902A0B122CA3
:2048000038E4902A2EF0D3902A0FE0941E902A0EE094004001227B017A2A7910902A0EE086
:20482000FFA3E0902F75CFF0A3EFF0902A07122B421235D2902A0B122C18E94A600B902AB5
:204840002EE0F582117AFF80027F00902A2EE02410F582E4342AF583E06F6002C322902ACB
:204860002EE004FFF0D3902A0FE09F902A0EE0940050C122122C181E8E8275830002277F89
:2048800090318E122C1890306D122C3890318E122C18903070122C387B017A227911903023
:2048A0006A3130E58F20E0FB31BB538FF075FF017E1090306D1174F593EE70F67E10903021
:2048C0006A1174F594EE70F67F0111E231EEEF70FB7E10903070122C181E8E8231CFEE7080
:2048E000F222EFB4010531C5F58F2275FF01E58F54F04406F58F229032573130E58F20E054
:20490000FB31BB538FF075FF01E4FF903257122C188F82117AF5930FEFB410EFE4FF90329D
:204920005A122C188F82117AF5940FEFB410EF22122C3875FF01229030733130E58F20E0BA
:20494000FB31BBE58F54F04402F58F75FF017F10903073122C181F8F82117AF59431AC8FB1
:2049600082758300E41227E0EF70E531B2EA540FFD31ACEAC4F854F0C8E9C4540F4854F024
:204980004DF59231B2E9F59875FF0131ACE9F59675FF0175991075FF0175971075FF014348
:2049A000912031C5F58FE58F20E0FB22903079022C1875FF01903076022C1875FF01538F74
:2049C0000675FF012275FF01E58F54F6440122758300E5930227E090342F3130E4FF90342C
:2049E0002F122C188F8231CF0FEFB410F12275FF01E58F5401FF22903115124048C0079026
:204A00003115122C18903118510FD0070247F5E0FFA3E0902A0ECFF0A3EFF022E4F97D0CB9
:204A2000AC0109EC90180E93FC0FEFAA0670010E14F5828A83ECF0DDE77F03228F828E8364
:204A4000E4F0A37404514F7436514FA3E4F022F08F828E83A3A32275FF0275E40475E4013D
:204A600075E4022275FF0275E404E4F5E4229004337158EBF090121DE054306006715550FD
:204A800002C322900433E0B4040BA351D79004337403F08025900433E06405701890121DD0
:204AA000E090043430E50651D77F1F800451DFE4FF714D800590043451DF900433E0900262
:204AC000B2F0900435E0901222F01252C09002BDEEF0A3EFF0D322E0FB7D017F018006E0D0
:204AE000FB7D01E4FFEB600875FF0153CDFD800675FF0143CD02ED600553FBDF800343FB28
:204B000020EF600775FF0243E1402275FF0253E1BF2290121DE07B027D0130E5087F015110
:204B2000E57F1F8006E4FF51E5E4FF714D7F0143FB1075FF0243E640EF600D75FF02E5E16D
:204B400020E7FB43FB0D800343FB0E80FE75FF028FE32280F8A22E22EFF0A3EDF0A3229093
:204B6000326CEEF0A37158EBF07FFFA3E0F9E9C3940C5023E97198E0FCA3E04C7016AF01E6
:204B800090326CE0FC126F2FA3E090326BF0912EE904FF220980D72275F007A42432F5828F
:204BA000E43428F58322900000E0605FE014F0E4F55DE55DC3940C50EDE55D7198E0FEA324
:204BC000E04E6043E55D719891DA45F07039910CF583E0FF600AF46007910CF583E014F0BE
:204BE000910CF583E06010E55D91809127FFE55D7198EEF0A3EFF0911A4E6008911AAA06DF
:204C0000F9122D0312366D055D80A722E55D75F007A42438F582E4342822E55D75F007A420
:204C20002436F582E43428F583E0FEA3E022903268ECF0A3EDF0AA07AF03EF70010FEF75AC
:204C4000F00AA4FFAEF0EA91809178F0EA7198EEF0A3EFF090326BE0FFEA910EF583EFF0E6
:204C6000903268E0FEA3E0FFEA75F007A42436F582E434289178F022F583EEF0A3EF22EF8B
:204C800075F007A42434F582E434282291BB5010917FF583E4F0A3F0EF7198E4F0A3F00ECB
:204CA000AF062291BB5011917FF58391D36009EF7198ECF0A3EDF00EAF0622E4FE1FEFC32F
:204CC000940C227E1A7FC07BFF7D649032707402F0615FE0FCA3E0FD4C2274FFF5F002283C
:204CE00069C0E0C0F0C083C082C0D075D008C0FF1247738F18E51864027053E51424F860CC
:204D00004324076002C13A90042591DA45F0702AAB1CAA1DA91EF177AD16AF1F125699E4A2
:204D2000FB7D01FF1255A075FF0012571C43FA0475FF00D162751408C13A43FA0475FF00D2
:204D4000D162C13AC2EB751400431504C13AE51864016002C13AF1DE4002C13AE510702B3D
:204D6000851282851183E090044BF0E0FF64556004EFB4540BD22E12505E900424F0C10A21
:204D800075100275FF0075D908C13AE51064027058D150F583E090044BF01262411258132A
:204DA000900413EFF090044BE0FFD394094025900413E0D39402400CEFD394AA7F004002DD
:204DC0007F01800D90044BE0D394407F0040027F01EF6004D147803290044BE0FFF51675C4
:204DE000FF008FD97510038051E5106403704BD14775FF00900413E0C39403E5D35005540E
:204E000002FF80035401FFEF6004D169802CC259D18F75FF00F16EE5D120E0FBC2EB43157D
:204E200002751000900413E0B403091516D150F583E516F09002B5E516F0D0FFD0D0D08202
:204E4000D083D0F0D0E032302E05C22E1258B622E5122407F582E4351122D1D543FA04E418
:204E6000F5FF53D1FD43D10122C259D18FF16BE5D120E0FBE4F5FF75D901900413E07F0031
:204E8000B403027F01D15AD259D18FE4F5102290349FE5F4F0E0547FF5F47F827E00124778
:204EA000BE1247215005E5FC20E6F630590890349FE04480F5F41247BA1247215005E5FC44
:204EC00020E6F675FF01E5D520E702C322E5F4D330E601C32275FF01E5D530E602C322E401
:204EE000F5FF439A80EFF1E5E4F5FF539A7FD322900439EEF0A3EFF0E514706EF1D0F1C0ED
:204F00005004C259D18F900439E0FEA3E08E11F512AE11AF127DAA125E9FE4F5FF75D90111
:204F2000F510E5155421602BE51530E504E4FFD1D5E490043BF090043BE004F0125A2BEF0A
:204F4000600990043BE0C3941040EB7F02121AA75315DE900413E07F00B403027F01D15AA3
:204F6000D259D18FD2EBA22D92ED22E4F5FFE5D154FE4402F5D122E4F5FFE9125EC0EA543C
:204F80000F42D622E51520E50BC259D18FF16BE5D120E0FBE4F51022E5147022F1D0F1C02E
:204FA0005004C259D18FF1C8F16BE5D120E0FB4315205315FEE4F510A22D92EDD322C3226D
:204FC000E5F4C330E701D322125C387F08021AA7C2EBA2ED922DC2ED22E4F51480BAE5F769
:204FE00054C024FF2233333354F8F5F42290121CE07012123F4AE04FFFA3E04FFFA3E04FDC
:205000007003D38001C3229002B1E064AA2411FFF022AE071107EE04FEEF8EF084AFF022FE
:2050200030500C902533E07006FF121A4DC25011340219DA302E24115EFF900424E0FEEF6D
:20504000C39E400AEF9ED394024010C22E22900424E0F42FD394014002C22E22C2AD9028AF
:2050600086E0A3E0229002BAE0FCA3E04C700A9002BAEEF0A3EFF0D322C3229002BAE0FE04
:20508000A3E0FF4E6009CAEECAC9EFC9122D0322E4F557F558F559F55A75FF0185FD537597
:2050A000FF0185C95475FF0185CA5575FF0185CB5622EF11B9F0020000901221F090349E38
:2050C00022901221E0FFF4600590349EEFF074FF11B9E0FF22901221E0FE640690349E6067
:2050E00004EFF08008EEF090122174FFF090349EE0FF22EFB40109D2AD75FF0143AE4022EA
:20510000C2AD75FF0153AEBF2275C80122E5C85402FF75C80222E5C85401FF2275FF02D29B
:20512000ADD2BD75FF02758E71755B0975FF02E58E546F4480F58E22C0E0C0F0C083C08286
:20514000C0D075D008C0FF75FF02E58E30E42975FF02E58E54EF4410F58E900000E004F026
:20516000E55B30E0020531E55B700B755B099028861237F68002155B75FF02E58530E404AC
:205180003197055CD0FFD0D0D082D083D0F0D0E03275FF0253857F75FF0243851022AB0741
:2051A000AA063191ED4C70050DBD00010CD3ED94FFEC9403500AEDF586EC4430F5858052B4
:2051C000D3ED94FCEC940F5017EDAE047802CEC313CE13D8F9AC06F586EC4434F58580325D
:2051E000D3ED94F0EC943F5016ECC4F854F0C868FCEDC4540F48F586EC4438F5858013EDF5
:20520000AE047806CEC313CE13D8F9F586EE443CF585903432512BD23AE4F55C75FF024339
:20522000854075FF02438580D23922AF03EAF0A3EFF0223191C239E4F55CC23A2230390D08
:205240003191E4F55CD23A75FF0243858022303A13E55C600F155C903432E0FEA3E0FF4E29
:205260006002516522AA06A907022D03E4F55CC23A22E4FB7D01E4903270F0024B5F90313F
:205280001A122C3851AF51B5AE04AF0590311FE0FDA3E0FB517651AFEF1227CE51AF1227E1
:2052A00066B4FF04E41227CE51AF122766FF2290311A022C18122766FF124C8CE40227CEA2
:2052C000A2AFE433FFC2AF902886E0FCA3E0FBAA04EF24FF92AFAE02AF0322903434EEF003
:2052E000A3EFF051C09034341241589FEC9E5009C3EF9DFFEE9CFE8013903434711FFCED1C
:205300002401FDE43CFCED2FFFEC3EFE229002BDE0FEA3E0FF51DBD3EF94C8EE940022E06D
:20532000FCA3E0F4FDECF422124FC0500471394003302E03D38001C322E5F754E024FF22AA
:20534000AF14EFC36001D322EFC3940E5005900415EFF022E517540FFF22E517C394F0501C
:205360001F5317F07183FE740FC39F4005EE940E400543170D8003EF4217E517540FFF2211
:205380007F0022E517C4540FFEEF9018F0932E227183FFC3940E40027F0DEF9018D293FFC0
:2053A00022EF30E303AF1322AD1B202F04EE30E00BE517C394F05020D1128018E51A60062B
:2053C000FDE4F51A8012E517C394F0500BE517540FFF60047190AD07AF052243150153159F
:2053E000DF71A1D1A64004E4F514225315FB124E5CD322900427EEF0A3D1F7C2EBE51460D4
:2054000002A182E51530E202C322124FC05005C259124E8F124F6BE5D120E0FBE4F510C2CC
:205420002E900428E05407C39403E494005022900430E0FF90042CE02FFFE433FED3EF9427
:2054400040EE648094804009431504A22D92EDD32290042D122C18CFE9CF8A118F129004D0
:2054600030E0F516AE11F125900429122C188B1C8A1D891E90042CE0F51F900427E0FCA346
:20548000E0FD54606029900431E0FFD13BB190FB7A00900425F10B7D17122802EF2BFFEA04
:2054A0003EFEEF2414FBE43EFA7D027F01A166900427A3E05407900414F0751408900429ED
:2054C000122C18124F7790042CE0FFAD16D199900414E06403702A7B01FDB18DB1D4500EAF
:2054E000900429D1FDF9E43AFA74011227ACE4F5FFF11CB1902428FBE433FA7D03E4FF8055
:2055000065900414E06402701AB18AB1D44002D100D18FF5D2B1902414FBE433FA7D027F31
:20552000018043E4B18AB1D44002D100E4F5FFB1F57F0560027F0AEF547FFFE5D254804F68
:20554000F5D2E4F5FF43D280B190FD7C00B1F57E0060047F0A80027F05F104FEEF2DFBEE4E
:205560003CFA7D017F01F141900427E0FEA3E0FF71DB4006A22D92EDC322A22D92EDD2EBDA
:20558000D322A22D92EDD2EBC322FB7D01FFB1A0900429122C18E92407F9E43AFA02276696
:2055A000E4F5FF75D102E5D120E0FBE4F5FFF5D1EF6008E4F5FF43D2808006E4F5FF53D235
:2055C0007FEB6006E4F5FF43D104ED6006E4F5FF43D10822FF900430E0FD90042CE02DFD38
:2055E000E433FCED2401FDE43CFCD3EF9DEC6480F874809822900427E0FEA3E044104E22B8
:20560000900429122C18E92407F9E43AFA74FF0227AC900415E0FDFFC3740ED188EFC4F83C
:20562000540FC868FFEEC454F048FEE51754F0C39FEEB1EE7F005002AF052290043CF113F2
:20564000751401E4FBFDFFB1A07B017A047916124F77E4FD7F02D199D18FF5D29004167422
:2056600055F090043CE0900417F09004147402F090043EE090042530E507E4F0A3743CF0EE
:2056800022E4F0A374F0F0229FFFE49400FE22E4F5FFE5D25480440A22E4F5FF8FD4F5FFC3
:2056A000CFEDCF8FD522900437EFF0900414E024FD6011047007D1ED7404F08012D1ED74B0
:2056C00008F0800BE4900438F09004367402F07F01121AA7900438E0FF900436E0FDA3E04F
:2056E000FBE490312BF012441D50E9D3229004387401F090043622EFF0A3022C38122C18F3
:20570000E9240722EF25E0FFEE3322E0FEA3E0FF7C0022EFF0A3ECF0A3EDF022E5D2548094
:205720004414F5D222E4F5FFEFF5D8E4F5FF53D60FEE540FC4F854F0C8E4C4540F4842D600
:2057400022900442EFF0ED24FE60191460262402703BEB2402FFE43AFE7C007D50122802CE
:205760007D60801EF1B5C333CE33CED8F9FF7C007D28800EF1B5C333CE33CED8F9FF7C000D
:205780007D64122814900443EEF0A3EFF0900442E0F1C0C083C082122B5E900444E024013F
:2057A000FF900443E03400FEE4FCFD122917D082D083022BCFEB2401FFE43AFEEF7803227A
:2057C00025E025E02418F582E43404F58322EFF1C0122B42022B28E51754F0C4540F2FFF4D
:2057E000C3941040027F0FEF9018E093FF227E10EE60091EEE9018E093B507F4EEC3940E38
:2058000040027E0DEE9018D293FF22C2AFEF4215D2AF22EF24FE600C24FE600580007F0141
:20582000227F02227F0322900445EFF0C25A317BD23B900445E090337EF0D23CA3E4F0A360
:20584000740DF011C3E4900446F0124FC0503E900446E07038E5F754C060EF11A311A3900D
:205860000446EFF0BF551211A390044691C76F90044670147402F080D1900446E0B45405A8
:205880007433F080C59004467401F080BD900446E0B40207C259124E8F800011B69004460E
:2058A000E0FF22E5F720E008E5F754C070F5FF2243F701AFF922C23BE490337EF0C23CA3D5
:2058C000F0A3F075FF01E5D520E702C322C25A317B203B02216853F4DF90337EE0FF124ED4
:2058E000D575FF0143D810303C0543F440800353F4BFE4F5FF53F5F090337FE0FAA3E0FB18
:20590000EA42F5EBF5F6D25A317B124739E4F5FFE59320E60512472140F3303C5CE5F4304D
:20592000E3047D288010E5F430E2047D288007E5F430E1027D28319C7F2812473B1247211D
:2059400040FB7F7812473B124721502D31A350F731CAEFC39D50F031A350ECE5F720E5E70D
:20596000C25A317B319C80DF53F4BF90120EE0D39401400543F42051FED322AFF4EF547FF0
:20598000F5F4305A05EF4480F5F475FF01E5D520E702C322E5F4D330E601C32275FF03E4D3
:2059A000F5912275FF01E5E43322E4FFE5F754C06002801675FF01E5D530E30D31A350F47A
:2059C00031CAEF60EF31A350EB229111AFD9225315FEE51530E5057F01124ED5512BEF7007
:2059E000FB7F02121AA77F01112790044CEFF0BF0202801390044CE0B43311E4F07F01116E
:205A000027BF020D90044C7401F08005E490044CF090044CE0700D124FC05005C259124EE5
:205A20008F124FC890044CE024FF22E49032E7F0A304F0E49032EAF0E5FA30E1FB75FF01B5
:205A4000E5D530E7037F0022E4F5FF75E50851FEE5D530E61A75FF019032E9E5DAF0E4F5B6
:205A6000DA75FF01E5D630E3FB9032EA7401F075FF03759B0475FC4175FF03E59B30E7FBB7
:205A8000E4FB75FF038B951243DBFF91890BEBB403F075FF03759580E4F5FF758EC871EEA7
:205AA00075FF0153D5FB319C7F1412473B12474D75FF0143D5049032EAE07008319C1247F9
:205AC0003912474D7B017A3279E8B1069032E8E09032E77006E04404FF8002E0FF9032E7CD
:205AE000EFF090120EE0B4010675FF0143D81075FF019032E9E0F5DA9032E7E0FF2275FFEF
:205B00000153D8EF22E5F730E50FE5F754C0700512472140F0319CC322D3229032EFEFF002
:205B2000A391CE75FF01124773EF64016002C322E5F430E602C3227FE87E031247561247C1
:205B40003F7105400122C259124E8F9032EFE0FF124ED553F4DFD259124E8F7F787E007138
:205B60009F75FF0153E4BFE5E430E7FB91117F8A910930E6061247E9E4800875FF01124763
:205B8000E9E5D91227CE75FF0143E44090120EE0D39401400343F4207105400122D322CD4E
:205BA000EFCDCCEECC71E2AB94EF4B9130CBEFCBFAE59130E71D71E5A994E9F582EF458244
:205BC000FFEB2DF582EA3CF583C3EF9582E5F0958340DEE59120E709CEECCECFEDCF1247D3
:205BE000492275FF03AF93EF75F010A4FF22E4F5FF75C2E17F1E910930E707E4F5FF75C204
:205C0000A122E4F5FF75C28122FE719F90120FE02275FF01E4F5EA75EAFF2271E2AD94EF13
:205C20004D91308FF01228F8E591C330E701D32224FBFFE5F034FF22E5FA30E1FB75FC803B
:205C400075FF0153D5EFE4F5FC75FC40319CE5FC20E6FB229032DF91817A3279E1911B50AC
:205C6000149032E1E0FEA3E0FF9032E0E09F9032DFE09E400B9032DFE0FEA3E0FF124756D2
:205C800022EEF0A3EFF07B01229032E3122BCF75FF019032E3A3E0FDA3A3E4FFFEE4FC781A
:205CA00010122A9E8FE19032E3A3A3E0FEA391BD8FE29032E3A3A3A3E0FF8FE322E4FFE497
:205CC000FDFC7808022A9EEFF090121CE022EBF0A3EAF0A3E9F02290337B91CE7F017C1241
:205CE0007D01E4FEED2EF582E43CF583E02FFF0EEEB412F0901213E06F600A90337B124755
:205D0000ECE41227CE22C25375FF03759B1F75FF0390120FE0FF20E71BE59A540FC394026B
:205D20004012EF4480F0E4F5FF75C2A143FC0475FF03D253E5FC30E609E59A540FC39405A1
:205D400040CCE5FC30E611E41227CE75FC80F5FC75FC40E5FC20E6FB3053031243B9229089
:205D60000425E0A3E0FF22E4FFFEFDFC900418B17C90041CB17C900420022BCF122BCFE446
:205D8000FFFEFDFC22E40227CE122766540F0227CE80F67F017E009017FCE4935EFE7401B8
:205DA000935F4E24FFB322900001740193B40007E493B41802C322D322EF7011ED600775FF
:205DC000FF0143AE012275FF0153AEFE22EFB40110ED600775FF0143AE022275FF0153AE11
:205DE000FD2275FF02E5E630E2037F0322E5E630E3037F0022E5E630E1037F0422E5E67F3A
:205E00000530E0027F0122EF600775FF0253E6BF2275FF0243E64022EF14600F14601424C4
:205E20000270188B8075FF018DFD228B9075FF018DC9228BA075FF018DCA22AF038FB07525
:205E4000FF01AF058FCB22903122122C38EF1460111460182402701ED181E580D187E5FD14
:205E6000801CD181E590D187E5C98012D181E5A0D187E5CA8008D181E5B0D187E5CB0227A9
:205E8000CE903125022C181227CE75FF01903122022C18E4F5FFAF9122E4F5FFAF9222E40A
:205EA000F5FF75D102E5D120E0FBE4F5D1F5FFEFD1C0EE540F42D6E4F5FFCFEDCF8FD42286
:205EC000F5D7E4F5FF53D6F022E4F5FF8FD422E4F5FFE5D1540133333354F8FFE4F5FFE502
:205EE000D354074FFF22EF30E00E43F401E4F5FF43A404F5FF759624EF30E10E43F401E4AF
:205F0000F5FF43A408F5FF759624EF30E20943F402E4F5FF75961EEF30E30943F404E4F518
:205F2000FF75961075FF01EF5403600475D7122275D72D22E4F5FF7584E6F5FF439404F592
:205F4000FF75981422CCEFCCCFEDCF74017E00C8EFC8088005C333CE33CED8F9FFCDECCDD3
:205F6000EF5D601B30551875FF0175DCAD75FF0175DDCDE4F5FF759A74F5FF759484227543
:205F8000FF0175DC5375FF0175DD33E4F5FF759A14F5FF75940422E4F5FF75933F75FF03AF
:205FA000759A40F134E4F5FF759C93F5FF75A1A3F5FF758531F5FF758628E5FA54304480E7
:205FC000F5FA75FF0175E74A75FF0275DF4975FF0143D30475FF0153D367E4F5FF53E6BF43
:205FE00075FF0175D825F5FF75B503F5FF75B215F5FF75BA02F5FF75AFB3F5FF75CD0AF544
:20600000FF75CB08F5FF75CA12F5FF75BF0EF5FF75CC96F5FFF5BDF5FF75C281F5FF75AE8A
:20602000E1F5FF75DA55F5FF75F580F5FF75E903F5FF75E933F5FF75972A75FF01759B423E
:20604000759CA4759D29759E48759F2475A11275A312759AF820560CF5FF43968090120FE4
:20606000E04440F02275FF0175E46575FF0175D647229032EBEDF0901211E0FEF46006A336
:20608000E0FDB4FF0C9032ED7418F0A37413F080089032EDEEF0A3EDF01227666401600224
:2060A00021E19032EBE0FE64086004EEB404089032EC7428F080069032EC743AF0EF124385
:2060C000DCFF122A69E47B64FAF9F8122932EF24D8FFEE343FFEED3493FDEC3416FC7B007E
:2060E0007A807903780012185631FF9032EEE0FF9032EDE0C3125688E4FCFD122932ECC03B
:20610000E0EDC0E0EEC0E0EFC0E09032EEE0FFE4FCFDFE7B64FAF9F8122932D0E0FBD0E0F9
:20612000FAD0E0F9D0E0F8EB2FFBEA3EFAE93DF9E83CF89032ECE0FFE4FCFDFE122932EFDE
:206140002454FFEE340B124416FCE47BA87A16F9F8121856CBEFCB9032EBE014605E1460D3
:206160001B24FE600C24FC7078E4F5FF75CE318006E4F5FF75CE21F5FF8BCF22E4FAE4F539
:20618000FFEA2440F5CEE4F5FFEAFFC3740712568874432FF58274183EF583E431E2C39D0A
:2061A000F5CFE4F5FFEA2448F5CEE4F5FFEA90184331E22DF5CF0AEAB408C322E4F5FF7597
:2061C000CE01F5FF8BCFF5FF75CE0EF5FFEB25E0F5CFE4F5FF75CE0FF5FFEB75F003A4F5AB
:2061E000CF229325E0FDE433FCEB75F010A4FFAEF0122814CDEFCDEBFFE4C313EF1322C8FE
:20620000ECC8C9EDC9CAEECACBEFCB2275FF01E5D530E602C32253FACFEFB4080543FA30BD
:206220008012EFB4040543FA208009EFB4020543FA108000D322E5F45418131313541FFFDE
:2062400022E5F75406FFBF06037F0822E5F75406FFBF04037F0422E5F75406FFBF02037F5E
:2062600002227F012275FF018FDA2275FF01E5D520E602C322E5FA540360FA75FF018FC3E5
:20628000D322CEEFCE75FF01E5D520E602C32243FA04E4FDEDC39E50077F55516B0D80F48A
:2062A000E5FA543070047F0F80027FF0516BD322E5F71322E490341AF02290341AE0C36011
:2062C00001D32253897F5389BF5389DF438910D2ABD2AF758D82758BFFD28E22E490341B75
:2062E000F0A3F0227F0120AF027F009034F1EFF0C28E758D82758BFFC28BD28EC390341C72
:20630000E094F190341BE094015007E475F00102286990341A711AA3F0227401F0E4A3F096
:2063200022C0E0C0F0C083C082C0D075D000C000C001C002C003C004C005C006C007C0FFB6
:2063400051E4D0FFD007D006D005D004D003D002D001D000D0D0D082D083D0F0D0E032C0F6
:20636000FFD0FF32C0FFD0FF32C0FFD0FF32717A91865357FD800C8553FD75FF0143530187
:206380005357FE8557808553FD229031B7EDF09031B4122C38E49031B9F01227CE91865303
:2063A00057FD71839031BA7480F09031BAE0D39400403A717A911A9031B8E0FF126A779089
:2063C00031B9EFF0E47F03911DE58030E1129031B4122C18122766FF9031BAE04F1227CE3E
:2063E00091EC911A9031BAE0C313F080BD9031B7E07004D140800891865357FD8557808513
:2064000053FD911A717A91E391865357FD7183E47F14911D9031B9E0FF22E47F01FEFDFC75
:20642000021B9C903423EFF0E4A3F0A37480F0903425E0FFD394004029903423E0FEEF5E35
:206440007004D140800891865357FD8557808553FD911A717A91E3911A903425E0C313F0FC
:2064600080CD91865357FD8557807177911AE58030E1069034247401F091ECE47F14911DB7
:20648000903424E0FF2275FF0143530222E49034F2F0FF91865357FD71837E80EED3940056
:2064A0004016717A0000E58030E103EF4EFF91EC0000EEC313FE80E4EF1227CEED7004D11B
:2064C00040800891865357FD8557808553FD717A000091EC000091865357FD71839034F235
:2064E000E0FF22E47F05FEFDFC121B9C5357FE85578075FF015353FE8553FD2291ECD137DA
:206500008553FD911A717AE47F0A911D91865357FD7183F1B4021B9C91ECE4FEEF30E70A76
:2065200091865357FD8557808002D1408553FD0000000000000000000000000000000000D9
:206540000000000000000000000000000000000000000000000000000000000000000071CA
:206560007A00000000000000000000000000000000000000000000000000000000000000A1
:20658000000000000000000000000000000000000091ECEF25E0FF0EEE64086002A11C9173
:2065A000865357FD71830000000000000000000000000000000000000000000000000000BA
:2065C00000000000000000000000000000000000000000000000717A0000000000000000D0
:2065E00000000000000000000000000000000000000000000000000000000000000000009B
:206600000000000000000000E4FFFEE58030E10B0FBF00010EBE02F3BFBCF081EC91865346
:2066200057FD7183911A717AD1378553FDE47F0A91E6F1B4021B9CE47F01FEFDFC121B9C39
:206640005357FD85578075FF015353FD22E4FE7D80EDD39400401FED5F7004D14080089181
:20666000865357FD8557808553FD717A000091ECEDC313FD80DB91865357FD855780717737
:20668000E58030E1027E0191ECAF062291865357FD718391ECE4FE0000000000000000009E
:2066A0000000000000000000000000000000000000000000000000000000000000000000DA
:2066C00000000000000000EF25E0FF717A00000000000000000000000000000000000000DC
:2066E0000000000000000000000000000000000000000000000000000000000000E5803005
:20670000E1010F91EC0EEE6408708CD1408553FD00000000000000000000000000000000C1
:20672000000000000000000000000000000000000000000000000000000000000000000059
:20674000717A0000000000000000000000000000000000000000000000000000000000004E
:2067600000000000000000000000000000000000000081EC91865357FD71830000717A000F
:2067800000D1408553FD000091EC00002291EC0000D1408553FD0000717A00009186535765
:2067A000FD7183000022D11DE4FF9123EF70047F06912322E47F0AFEFDFC2291865357FD3F
:2067C0008557806177F1BBEF25E0903428F04401903427F022126850E4FD7FA2EF54FE4D6D
:2067E000FFA11891865357FD7183000000000000000000000000000000000000000000002F
:20680000000000000000000000000000000000000000000000000000000012637A00000089
:20682000000000000000000000000000000000000000000000000000000000000000000058
:20684000000000000000000000000000000264EC1264865357FD85578012637700000000FB
:2068600000000000000000000000000000000000000000001266408553FD0000000000008B
:2068800000000000000000000000000000000000000022903253122C38AC0511501267DCE4
:2068A000903256E0FDD394004025EC700D903253122C1811D5304E1C8018903253122C18C0
:2068C000903256E0FDA24D924BA24E924C801F304E0231502290341D122C38ED600F9034F0
:2068E0001D3149122766FF1265181D80EE22903377122C38ED14FCD39400400A903377127D
:206900002C18AD043130304B0431F0800312668C90337AEFF090337AE0FF903377122C1832
